{
  "_format": "hh-sol-artifact-1",
  "contractName": "ERC721ACombination",
  "sourceName": "contracts/ERC721ACombination.sol",
  "abi": [
    {
      "inputs": [
        {
          "internalType": "string",
          "name": "_name",
          "type": "string"
        },
        {
          "internalType": "string",
          "name": "_symbol",
          "type": "string"
        },
        {
          "internalType": "uint256",
          "name": "_maxSupply",
          "type": "uint256"
        },
        {
          "internalType": "string",
          "name": "_baseURI",
          "type": "string"
        },
        {
          "internalType": "uint256",
          "name": "_nftPrice",
          "type": "uint256"
        },
        {
          "internalType": "string",
          "name": "_blindTokenURI",
          "type": "string"
        },
        {
          "internalType": "uint256",
          "name": "_maxPerAddressMint",
          "type": "uint256"
        },
        {
          "internalType": "uint256",
          "name": "_teamMint",
          "type": "uint256"
        }
      ],
      "stateMutability": "nonpayable",
      "type": "constructor"
    },
    {
      "inputs": [],
      "name": "ApprovalCallerNotOwnerNorApproved",
      "type": "error"
    },
    {
      "inputs": [],
      "name": "ApprovalQueryForNonexistentToken",
      "type": "error"
    },
    {
      "inputs": [],
      "name": "ApproveToCaller",
      "type": "error"
    },
    {
      "inputs": [],
      "name": "BalanceQueryForZeroAddress",
      "type": "error"
    },
    {
      "inputs": [],
      "name": "MintERC2309QuantityExceedsLimit",
      "type": "error"
    },
    {
      "inputs": [],
      "name": "MintToZeroAddress",
      "type": "error"
    },
    {
      "inputs": [],
      "name": "MintZeroQuantity",
      "type": "error"
    },
    {
      "inputs": [],
      "name": "OwnerQueryForNonexistentToken",
      "type": "error"
    },
    {
      "inputs": [],
      "name": "OwnershipNotInitializedForExtraData",
      "type": "error"
    },
    {
      "inputs": [],
      "name": "TransferCallerNotOwnerNorApproved",
      "type": "error"
    },
    {
      "inputs": [],
      "name": "TransferFromIncorrectOwner",
      "type": "error"
    },
    {
      "inputs": [],
      "name": "TransferToNonERC721ReceiverImplementer",
      "type": "error"
    },
    {
      "inputs": [],
      "name": "TransferToZeroAddress",
      "type": "error"
    },
    {
      "inputs": [],
      "name": "URIQueryForNonexistentToken",
      "type": "error"
    },
    {
      "anonymous": false,
      "inputs": [
        {
          "indexed": false,
          "internalType": "address",
          "name": "account",
          "type": "address"
        }
      ],
      "name": "AllowlistPaused",
      "type": "event"
    },
    {
      "anonymous": false,
      "inputs": [
        {
          "indexed": false,
          "internalType": "address",
          "name": "account",
          "type": "address"
        }
      ],
      "name": "AllowlistUnpaused",
      "type": "event"
    },
    {
      "anonymous": false,
      "inputs": [
        {
          "indexed": true,
          "internalType": "address",
          "name": "owner",
          "type": "address"
        },
        {
          "indexed": true,
          "internalType": "address",
          "name": "approved",
          "type": "address"
        },
        {
          "indexed": true,
          "internalType": "uint256",
          "name": "tokenId",
          "type": "uint256"
        }
      ],
      "name": "Approval",
      "type": "event"
    },
    {
      "anonymous": false,
      "inputs": [
        {
          "indexed": true,
          "internalType": "address",
          "name": "owner",
          "type": "address"
        },
        {
          "indexed": true,
          "internalType": "address",
          "name": "operator",
          "type": "address"
        },
        {
          "indexed": false,
          "internalType": "bool",
          "name": "approved",
          "type": "bool"
        }
      ],
      "name": "ApprovalForAll",
      "type": "event"
    },
    {
      "anonymous": false,
      "inputs": [
        {
          "indexed": true,
          "internalType": "uint256",
          "name": "fromTokenId",
          "type": "uint256"
        },
        {
          "indexed": false,
          "internalType": "uint256",
          "name": "toTokenId",
          "type": "uint256"
        },
        {
          "indexed": true,
          "internalType": "address",
          "name": "from",
          "type": "address"
        },
        {
          "indexed": true,
          "internalType": "address",
          "name": "to",
          "type": "address"
        }
      ],
      "name": "ConsecutiveTransfer",
      "type": "event"
    },
    {
      "anonymous": false,
      "inputs": [
        {
          "indexed": true,
          "internalType": "address",
          "name": "previousOwner",
          "type": "address"
        },
        {
          "indexed": true,
          "internalType": "address",
          "name": "newOwner",
          "type": "address"
        }
      ],
      "name": "OwnershipTransferred",
      "type": "event"
    },
    {
      "anonymous": false,
      "inputs": [
        {
          "indexed": false,
          "internalType": "address",
          "name": "account",
          "type": "address"
        }
      ],
      "name": "Paused",
      "type": "event"
    },
    {
      "anonymous": false,
      "inputs": [
        {
          "indexed": true,
          "internalType": "bytes32",
          "name": "role",
          "type": "bytes32"
        },
        {
          "indexed": true,
          "internalType": "bytes32",
          "name": "previousAdminRole",
          "type": "bytes32"
        },
        {
          "indexed": true,
          "internalType": "bytes32",
          "name": "newAdminRole",
          "type": "bytes32"
        }
      ],
      "name": "RoleAdminChanged",
      "type": "event"
    },
    {
      "anonymous": false,
      "inputs": [
        {
          "indexed": true,
          "internalType": "bytes32",
          "name": "role",
          "type": "bytes32"
        },
        {
          "indexed": true,
          "internalType": "address",
          "name": "account",
          "type": "address"
        },
        {
          "indexed": true,
          "internalType": "address",
          "name": "sender",
          "type": "address"
        }
      ],
      "name": "RoleGranted",
      "type": "event"
    },
    {
      "anonymous": false,
      "inputs": [
        {
          "indexed": true,
          "internalType": "bytes32",
          "name": "role",
          "type": "bytes32"
        },
        {
          "indexed": true,
          "internalType": "address",
          "name": "account",
          "type": "address"
        },
        {
          "indexed": true,
          "internalType": "address",
          "name": "sender",
          "type": "address"
        }
      ],
      "name": "RoleRevoked",
      "type": "event"
    },
    {
      "anonymous": false,
      "inputs": [
        {
          "indexed": true,
          "internalType": "address",
          "name": "from",
          "type": "address"
        },
        {
          "indexed": true,
          "internalType": "address",
          "name": "to",
          "type": "address"
        },
        {
          "indexed": true,
          "internalType": "uint256",
          "name": "tokenId",
          "type": "uint256"
        }
      ],
      "name": "Transfer",
      "type": "event"
    },
    {
      "anonymous": false,
      "inputs": [
        {
          "indexed": false,
          "internalType": "address",
          "name": "account",
          "type": "address"
        }
      ],
      "name": "Unpaused",
      "type": "event"
    },
    {
      "inputs": [],
      "name": "DEFAULT_ADMIN_ROLE",
      "outputs": [
        {
          "internalType": "bytes32",
          "name": "",
          "type": "bytes32"
        }
      ],
      "stateMutability": "view",
      "type": "function"
    },
    {
      "inputs": [
        {
          "internalType": "address",
          "name": "account",
          "type": "address"
        }
      ],
      "name": "addMember",
      "outputs": [],
      "stateMutability": "nonpayable",
      "type": "function"
    },
    {
      "inputs": [
        {
          "internalType": "address",
          "name": "",
          "type": "address"
        }
      ],
      "name": "allowlist",
      "outputs": [
        {
          "internalType": "uint256",
          "name": "",
          "type": "uint256"
        }
      ],
      "stateMutability": "view",
      "type": "function"
    },
    {
      "inputs": [
        {
          "internalType": "uint256",
          "name": "quantity",
          "type": "uint256"
        }
      ],
      "name": "allowlistMint",
      "outputs": [],
      "stateMutability": "payable",
      "type": "function"
    },
    {
      "inputs": [],
      "name": "allowlistNftPrice",
      "outputs": [
        {
          "internalType": "uint256",
          "name": "",
          "type": "uint256"
        }
      ],
      "stateMutability": "view",
      "type": "function"
    },
    {
      "inputs": [],
      "name": "allowlistPause",
      "outputs": [],
      "stateMutability": "nonpayable",
      "type": "function"
    },
    {
      "inputs": [],
      "name": "allowlistPaused",
      "outputs": [
        {
          "internalType": "bool",
          "name": "",
          "type": "bool"
        }
      ],
      "stateMutability": "view",
      "type": "function"
    },
    {
      "inputs": [],
      "name": "allowlistUnpause",
      "outputs": [],
      "stateMutability": "nonpayable",
      "type": "function"
    },
    {
      "inputs": [
        {
          "internalType": "address",
          "name": "to",
          "type": "address"
        },
        {
          "internalType": "uint256",
          "name": "tokenId",
          "type": "uint256"
        }
      ],
      "name": "approve",
      "outputs": [],
      "stateMutability": "nonpayable",
      "type": "function"
    },
    {
      "inputs": [
        {
          "internalType": "address",
          "name": "owner",
          "type": "address"
        }
      ],
      "name": "balanceOf",
      "outputs": [
        {
          "internalType": "uint256",
          "name": "",
          "type": "uint256"
        }
      ],
      "stateMutability": "view",
      "type": "function"
    },
    {
      "inputs": [],
      "name": "baseURI",
      "outputs": [
        {
          "internalType": "string",
          "name": "",
          "type": "string"
        }
      ],
      "stateMutability": "view",
      "type": "function"
    },
    {
      "inputs": [],
      "name": "blindBoxOpened",
      "outputs": [
        {
          "internalType": "bool",
          "name": "",
          "type": "bool"
        }
      ],
      "stateMutability": "view",
      "type": "function"
    },
    {
      "inputs": [],
      "name": "blindTokenURI",
      "outputs": [
        {
          "internalType": "string",
          "name": "",
          "type": "string"
        }
      ],
      "stateMutability": "view",
      "type": "function"
    },
    {
      "inputs": [
        {
          "internalType": "uint256",
          "name": "tokenId",
          "type": "uint256"
        }
      ],
      "name": "getApproved",
      "outputs": [
        {
          "internalType": "address",
          "name": "",
          "type": "address"
        }
      ],
      "stateMutability": "view",
      "type": "function"
    },
    {
      "inputs": [
        {
          "internalType": "bytes32",
          "name": "role",
          "type": "bytes32"
        }
      ],
      "name": "getRoleAdmin",
      "outputs": [
        {
          "internalType": "bytes32",
          "name": "",
          "type": "bytes32"
        }
      ],
      "stateMutability": "view",
      "type": "function"
    },
    {
      "inputs": [
        {
          "internalType": "bytes32",
          "name": "role",
          "type": "bytes32"
        },
        {
          "internalType": "uint256",
          "name": "index",
          "type": "uint256"
        }
      ],
      "name": "getRoleMember",
      "outputs": [
        {
          "internalType": "address",
          "name": "",
          "type": "address"
        }
      ],
      "stateMutability": "view",
      "type": "function"
    },
    {
      "inputs": [
        {
          "internalType": "bytes32",
          "name": "role",
          "type": "bytes32"
        }
      ],
      "name": "getRoleMemberCount",
      "outputs": [
        {
          "internalType": "uint256",
          "name": "",
          "type": "uint256"
        }
      ],
      "stateMutability": "view",
      "type": "function"
    },
    {
      "inputs": [
        {
          "internalType": "uint256",
          "name": "index",
          "type": "uint256"
        }
      ],
      "name": "getSharingMember",
      "outputs": [
        {
          "internalType": "address",
          "name": "",
          "type": "address"
        },
        {
          "internalType": "uint256",
          "name": "",
          "type": "uint256"
        }
      ],
      "stateMutability": "view",
      "type": "function"
    },
    {
      "inputs": [],
      "name": "getSharingMemberCount",
      "outputs": [
        {
          "internalType": "uint256",
          "name": "",
          "type": "uint256"
        }
      ],
      "stateMutability": "view",
      "type": "function"
    },
    {
      "inputs": [
        {
          "internalType": "bytes32",
          "name": "role",
          "type": "bytes32"
        },
        {
          "internalType": "address",
          "name": "account",
          "type": "address"
        }
      ],
      "name": "grantRole",
      "outputs": [],
      "stateMutability": "nonpayable",
      "type": "function"
    },
    {
      "inputs": [
        {
          "internalType": "bytes32",
          "name": "role",
          "type": "bytes32"
        },
        {
          "internalType": "address",
          "name": "account",
          "type": "address"
        }
      ],
      "name": "hasRole",
      "outputs": [
        {
          "internalType": "bool",
          "name": "",
          "type": "bool"
        }
      ],
      "stateMutability": "view",
      "type": "function"
    },
    {
      "inputs": [
        {
          "internalType": "address",
          "name": "owner",
          "type": "address"
        },
        {
          "internalType": "address",
          "name": "operator",
          "type": "address"
        }
      ],
      "name": "isApprovedForAll",
      "outputs": [
        {
          "internalType": "bool",
          "name": "",
          "type": "bool"
        }
      ],
      "stateMutability": "view",
      "type": "function"
    },
    {
      "inputs": [
        {
          "internalType": "address",
          "name": "account",
          "type": "address"
        }
      ],
      "name": "isMember",
      "outputs": [
        {
          "internalType": "bool",
          "name": "",
          "type": "bool"
        }
      ],
      "stateMutability": "view",
      "type": "function"
    },
    {
      "inputs": [
        {
          "internalType": "address",
          "name": "addr",
          "type": "address"
        }
      ],
      "name": "isSharingMember",
      "outputs": [
        {
          "internalType": "bool",
          "name": "",
          "type": "bool"
        }
      ],
      "stateMutability": "view",
      "type": "function"
    },
    {
      "inputs": [],
      "name": "maxPerAddressMint",
      "outputs": [
        {
          "internalType": "uint256",
          "name": "",
          "type": "uint256"
        }
      ],
      "stateMutability": "view",
      "type": "function"
    },
    {
      "inputs": [],
      "name": "maxSupply",
      "outputs": [
        {
          "internalType": "uint256",
          "name": "",
          "type": "uint256"
        }
      ],
      "stateMutability": "view",
      "type": "function"
    },
    {
      "inputs": [
        {
          "internalType": "uint256",
          "name": "quantity",
          "type": "uint256"
        }
      ],
      "name": "mint",
      "outputs": [],
      "stateMutability": "payable",
      "type": "function"
    },
    {
      "inputs": [],
      "name": "name",
      "outputs": [
        {
          "internalType": "string",
          "name": "",
          "type": "string"
        }
      ],
      "stateMutability": "view",
      "type": "function"
    },
    {
      "inputs": [],
      "name": "nftPrice",
      "outputs": [
        {
          "internalType": "uint256",
          "name": "",
          "type": "uint256"
        }
      ],
      "stateMutability": "view",
      "type": "function"
    },
    {
      "inputs": [],
      "name": "owner",
      "outputs": [
        {
          "internalType": "address",
          "name": "",
          "type": "address"
        }
      ],
      "stateMutability": "view",
      "type": "function"
    },
    {
      "inputs": [
        {
          "internalType": "uint256",
          "name": "tokenId",
          "type": "uint256"
        }
      ],
      "name": "ownerOf",
      "outputs": [
        {
          "internalType": "address",
          "name": "",
          "type": "address"
        }
      ],
      "stateMutability": "view",
      "type": "function"
    },
    {
      "inputs": [],
      "name": "pause",
      "outputs": [],
      "stateMutability": "nonpayable",
      "type": "function"
    },
    {
      "inputs": [],
      "name": "paused",
      "outputs": [
        {
          "internalType": "bool",
          "name": "",
          "type": "bool"
        }
      ],
      "stateMutability": "view",
      "type": "function"
    },
    {
      "inputs": [
        {
          "internalType": "address",
          "name": "account",
          "type": "address"
        }
      ],
      "name": "removeMember",
      "outputs": [],
      "stateMutability": "nonpayable",
      "type": "function"
    },
    {
      "inputs": [],
      "name": "renounceOwnership",
      "outputs": [],
      "stateMutability": "nonpayable",
      "type": "function"
    },
    {
      "inputs": [
        {
          "internalType": "bytes32",
          "name": "role",
          "type": "bytes32"
        },
        {
          "internalType": "address",
          "name": "account",
          "type": "address"
        }
      ],
      "name": "renounceRole",
      "outputs": [],
      "stateMutability": "nonpayable",
      "type": "function"
    },
    {
      "inputs": [
        {
          "internalType": "bytes32",
          "name": "role",
          "type": "bytes32"
        },
        {
          "internalType": "address",
          "name": "account",
          "type": "address"
        }
      ],
      "name": "revokeRole",
      "outputs": [],
      "stateMutability": "nonpayable",
      "type": "function"
    },
    {
      "inputs": [
        {
          "internalType": "address",
          "name": "from",
          "type": "address"
        },
        {
          "internalType": "address",
          "name": "to",
          "type": "address"
        },
        {
          "internalType": "uint256",
          "name": "tokenId",
          "type": "uint256"
        }
      ],
      "name": "safeTransferFrom",
      "outputs": [],
      "stateMutability": "nonpayable",
      "type": "function"
    },
    {
      "inputs": [
        {
          "internalType": "address",
          "name": "from",
          "type": "address"
        },
        {
          "internalType": "address",
          "name": "to",
          "type": "address"
        },
        {
          "internalType": "uint256",
          "name": "tokenId",
          "type": "uint256"
        },
        {
          "internalType": "bytes",
          "name": "_data",
          "type": "bytes"
        }
      ],
      "name": "safeTransferFrom",
      "outputs": [],
      "stateMutability": "nonpayable",
      "type": "function"
    },
    {
      "inputs": [
        {
          "internalType": "address[]",
          "name": "addresses",
          "type": "address[]"
        },
        {
          "internalType": "uint256[]",
          "name": "numSlots",
          "type": "uint256[]"
        }
      ],
      "name": "seedAllowlist",
      "outputs": [],
      "stateMutability": "nonpayable",
      "type": "function"
    },
    {
      "inputs": [
        {
          "internalType": "uint256",
          "name": "_allowlistNftPrice",
          "type": "uint256"
        }
      ],
      "name": "setAllowlistNftPrice",
      "outputs": [],
      "stateMutability": "nonpayable",
      "type": "function"
    },
    {
      "inputs": [
        {
          "internalType": "address",
          "name": "operator",
          "type": "address"
        },
        {
          "internalType": "bool",
          "name": "approved",
          "type": "bool"
        }
      ],
      "name": "setApprovalForAll",
      "outputs": [],
      "stateMutability": "nonpayable",
      "type": "function"
    },
    {
      "inputs": [
        {
          "internalType": "string",
          "name": "_baseURI",
          "type": "string"
        }
      ],
      "name": "setBaseURI",
      "outputs": [],
      "stateMutability": "nonpayable",
      "type": "function"
    },
    {
      "inputs": [
        {
          "internalType": "bool",
          "name": "_status",
          "type": "bool"
        }
      ],
      "name": "setBlindBoxOpened",
      "outputs": [],
      "stateMutability": "nonpayable",
      "type": "function"
    },
    {
      "inputs": [
        {
          "internalType": "string",
          "name": "_blindTokenURI",
          "type": "string"
        }
      ],
      "name": "setBlindTokenURI",
      "outputs": [],
      "stateMutability": "nonpayable",
      "type": "function"
    },
    {
      "inputs": [
        {
          "internalType": "uint256",
          "name": "_maxPerAddressMint",
          "type": "uint256"
        }
      ],
      "name": "setMaxPerAddressMint",
      "outputs": [],
      "stateMutability": "nonpayable",
      "type": "function"
    },
    {
      "inputs": [
        {
          "internalType": "uint256",
          "name": "_nftPrice",
          "type": "uint256"
        }
      ],
      "name": "setNftPrice",
      "outputs": [],
      "stateMutability": "nonpayable",
      "type": "function"
    },
    {
      "inputs": [
        {
          "internalType": "bytes4",
          "name": "interfaceId",
          "type": "bytes4"
        }
      ],
      "name": "supportsInterface",
      "outputs": [
        {
          "internalType": "bool",
          "name": "",
          "type": "bool"
        }
      ],
      "stateMutability": "view",
      "type": "function"
    },
    {
      "inputs": [],
      "name": "symbol",
      "outputs": [
        {
          "internalType": "string",
          "name": "",
          "type": "string"
        }
      ],
      "stateMutability": "view",
      "type": "function"
    },
    {
      "inputs": [
        {
          "internalType": "uint256",
          "name": "_tokenId",
          "type": "uint256"
        }
      ],
      "name": "tokenURI",
      "outputs": [
        {
          "internalType": "string",
          "name": "",
          "type": "string"
        }
      ],
      "stateMutability": "view",
      "type": "function"
    },
    {
      "inputs": [],
      "name": "totalSupply",
      "outputs": [
        {
          "internalType": "uint256",
          "name": "",
          "type": "uint256"
        }
      ],
      "stateMutability": "view",
      "type": "function"
    },
    {
      "inputs": [
        {
          "internalType": "address",
          "name": "from",
          "type": "address"
        },
        {
          "internalType": "address",
          "name": "to",
          "type": "address"
        },
        {
          "internalType": "uint256",
          "name": "tokenId",
          "type": "uint256"
        }
      ],
      "name": "transferFrom",
      "outputs": [],
      "stateMutability": "nonpayable",
      "type": "function"
    },
    {
      "inputs": [
        {
          "internalType": "address",
          "name": "newOwner",
          "type": "address"
        }
      ],
      "name": "transferOwnership",
      "outputs": [],
      "stateMutability": "nonpayable",
      "type": "function"
    },
    {
      "inputs": [],
      "name": "unpause",
      "outputs": [],
      "stateMutability": "nonpayable",
      "type": "function"
    },
    {
      "inputs": [
        {
          "internalType": "address[]",
          "name": "addresses",
          "type": "address[]"
        },
        {
          "internalType": "uint8[]",
          "name": "numSlots",
          "type": "uint8[]"
        }
      ],
      "name": "updateSharing",
      "outputs": [],
      "stateMutability": "nonpayable",
      "type": "function"
    },
    {
      "inputs": [],
      "name": "withdraw",
      "outputs": [],
      "stateMutability": "nonpayable",
      "type": "function"
    }
  ],
  "bytecode": "0x608060405260405180602001604052806000815250600e90805190602001906200002b929190620011a4565b506000600f55600060105560006011556000601260006101000a81548160ff02191690831515021790555060405180602001604052806000815250601390805190602001906200007d929190620011a4565b5060006015553480156200009057600080fd5b50604051620078dc380380620078dc8339818101604052810190620000b691906200142c565b87878160029080519060200190620000d0929190620011a4565b508060039080519060200190620000e9929190620011a4565b50620000fa6200033060201b60201c565b600081905550505062000122620001166200033560201b60201c565b6200033d60201b60201c565b6000600860146101000a81548160ff0219169083151502179055506001600860156101000a81548160ff0219169083151502179055508560108190555084600e908051906020019062000177929190620011a4565b50826013908051906020019062000190929190620011a4565b50816011819055506000811115620001b557620001b433826200040360201b60201c565b5b620001ca6000801b336200042960201b60201c565b620001da6200047160201b60201c565b620001eb846200052960201b60201c565b6000600167ffffffffffffffff8111156200020b576200020a62001283565b5b6040519080825280602002602001820160405280156200023a5781602001602082028036833780820191505090505b509050338160008151811062000255576200025462001571565b5b602002602001019073ffffffffffffffffffffffffffffffffffffffff16908173ffffffffffffffffffffffffffffffffffffffff16815250506000600167ffffffffffffffff811115620002af57620002ae62001283565b5b604051908082528060200260200182016040528015620002de5781602001602082028036833780820191505090505b509050606481600081518110620002fa57620002f962001571565b5b602002602001019060ff16908160ff16815250506200032082826200058660201b60201c565b5050505050505050505062001a63565b600090565b600033905090565b6000600860009054906101000a900473ffffffffffffffffffffffffffffffffffffffff16905081600860006101000a81548173ffffffffffffffffffffffffffffffffffffffff021916908373ffffffffffffffffffffffffffffffffffffffff1602179055508173ffffffffffffffffffffffffffffffffffffffff168173ffffffffffffffffffffffffffffffffffffffff167f8be0079c531659141344cd1fd0a4f28419497f9722a3daafe3b4186f6b6457e060405160405180910390a35050565b620004258282604051806020016040528060008152506200072b60201b60201c565b5050565b620004408282620007dc60201b62002a771760201c565b6200046c81600a6000858152602001908152602001600020620008ce60201b62002b581790919060201c565b505050565b620004816200090660201b60201c565b15620004c4576040517f08c379a0000000000000000000000000000000000000000000000000000000008152600401620004bb9062001601565b60405180910390fd5b6001600860146101000a81548160ff0219169083151502179055507f62e78cea01bee320cd4e420270b5ea74000d11b0c9f74754ebdbfc544b05a258620005106200033560201b60201c565b6040516200051f919062001668565b60405180910390a1565b6200053a336200091d60201b60201c565b6200057c576040517f08c379a00000000000000000000000000000000000000000000000000000000081526004016200057390620016d5565b60405180910390fd5b80600f8190555050565b60005b82518110156200066e576000828281518110620005ab57620005aa62001571565b5b602002602001015160ff161415620005fc57620005f5838281518110620005d757620005d662001571565b5b6020026020010151600b6200093b60201b62002b881790919060201c565b5062000658565b6200065683828151811062000616576200061562001571565b5b602002602001015183838151811062000634576200063362001571565b5b602002602001015160ff16600b6200097360201b62002bb8179092919060201c565b505b8080620006659062001726565b91505062000589565b5060008062000689600b620009b060201b62002bed1760201c565b905060005b81811015620006de576000620006b482600b620009cd60201b62002c021790919060201c565b9150508084620006c5919062001774565b9350508080620006d59062001726565b9150506200068e565b506064821462000725576040517f08c379a00000000000000000000000000000000000000000000000000000000081526004016200071c9062001821565b60405180910390fd5b50505050565b6200073d838362000a0160201b60201c565b60008373ffffffffffffffffffffffffffffffffffffffff163b14620007d757600080549050600083820390505b62000786600086838060010194508662000bea60201b60201c565b620007bd576040517fd1a57ed600000000000000000000000000000000000000000000000000000000815260040160405180910390fd5b8181106200076b578160005414620007d457600080fd5b50505b505050565b620007ee828262000d4c60201b60201c565b620008ca5760016009600084815260200190815260200160002060000160008373ffffffffffffffffffffffffffffffffffffffff1673ffffffffffffffffffffffffffffffffffffffff16815260200190815260200160002060006101000a81548160ff0219169083151502179055506200086f6200033560201b60201c565b73ffffffffffffffffffffffffffffffffffffffff168173ffffffffffffffffffffffffffffffffffffffff16837f2f8788117e7eff1d82e926ec794901d17c78024a50270940304540a733656f0d60405160405180910390a45b5050565b6000620008fe836000018373ffffffffffffffffffffffffffffffffffffffff1660001b62000db760201b60201c565b905092915050565b6000600860149054906101000a900460ff16905090565b6000620009346000801b8362000d4c60201b60201c565b9050919050565b60006200096b836000018373ffffffffffffffffffffffffffffffffffffffff1660001b62000e3160201b60201c565b905092915050565b6000620009a7846000018473ffffffffffffffffffffffffffffffffffffffff1660001b8460001b62000e7160201b60201c565b90509392505050565b6000620009c68260000162000eb360201b60201c565b9050919050565b600080600080620009e8866000018662000ed560201b60201c565b915091508160001c8160001c9350935050509250929050565b600080549050600082141562000a43576040517fb562e8dd00000000000000000000000000000000000000000000000000000000815260040160405180910390fd5b62000a58600084838562000f1c60201b60201c565b600160406001901b178202600560008573ffffffffffffffffffffffffffffffffffffffff1673ffffffffffffffffffffffffffffffffffffffff1681526020019081526020016000206000828254019250508190555062000ae78362000ac9600086600062000f2260201b60201c565b62000ada8562000f5260201b60201c565b1762000f6260201b60201c565b6004600083815260200190815260200160002081905550600080838301905073ffffffffffffffffffffffffffffffffffffffff85169150828260007fddf252ad1be2c89b69c2b068fc378daa952ba7f163c4a11628f55a4df523b3ef600080a4600183015b81811462000b8a57808360007fddf252ad1be2c89b69c2b068fc378daa952ba7f163c4a11628f55a4df523b3ef600080a460018101905062000b4d565b50600082141562000bc7576040517f2e07630000000000000000000000000000000000000000000000000000000000815260040160405180910390fd5b80600081905550505062000be5600084838562000f8d60201b60201c565b505050565b60008373ffffffffffffffffffffffffffffffffffffffff1663150b7a0262000c1862000f9360201b60201c565b8786866040518563ffffffff1660e01b815260040162000c3c9493929190620018b1565b6020604051808303816000875af192505050801562000c7b57506040513d601f19601f8201168201806040525081019062000c78919062001962565b60015b62000cf9573d806000811462000cae576040519150601f19603f3d011682016040523d82523d6000602084013e62000cb3565b606091505b5060008151141562000cf1576040517fd1a57ed600000000000000000000000000000000000000000000000000000000815260040160405180910390fd5b805181602001fd5b63150b7a0260e01b7bffffffffffffffffffffffffffffffffffffffffffffffffffffffff1916817bffffffffffffffffffffffffffffffffffffffffffffffffffffffff191614915050949350505050565b60006009600084815260200190815260200160002060000160008373ffffffffffffffffffffffffffffffffffffffff1673ffffffffffffffffffffffffffffffffffffffff16815260200190815260200160002060009054906101000a900460ff16905092915050565b600062000dcb838362000f9b60201b60201c565b62000e2657826000018290806001815401808255809150506001900390600052602060002001600090919091909150558260000180549050836001016000848152602001908152602001600020819055506001905062000e2b565b600090505b92915050565b60008260020160008381526020019081526020016000206000905562000e69828460000162000fbe60201b62002c2e1790919060201c565b905092915050565b6000818460020160008581526020019081526020016000208190555062000eaa838560000162000fdd60201b62002c451790919060201c565b90509392505050565b600062000ece8260000162000ffc60201b62002c5c1760201c565b9050919050565b600080600062000ef784866000016200101960201b62002c711790919060201c565b9050808560020160008381526020019081526020016000205492509250509250929050565b50505050565b60008060e883901c905060e862000f418686846200103860201b60201c565b62ffffff16901b9150509392505050565b60006001821460e11b9050919050565b600073ffffffffffffffffffffffffffffffffffffffff83169250814260a01b178317905092915050565b50505050565b600033905090565b600080836001016000848152602001908152602001600020541415905092915050565b600062000fd583600001836200104160201b60201c565b905092915050565b600062000ff4836000018362000db760201b60201c565b905092915050565b600062001012826000016200116560201b60201c565b9050919050565b60006200103083600001836200117660201b60201c565b905092915050565b60009392505050565b600080836001016000848152602001908152602001600020549050600081146200115957600060018262001076919062001994565b905060006001866000018054905062001090919062001994565b905081811462001106576000866000018281548110620010b557620010b462001571565b5b9060005260206000200154905080876000018481548110620010dc57620010db62001571565b5b90600052602060002001819055508387600101600083815260200190815260200160002081905550505b856000018054806200111d576200111c620019cf565b5b6001900381819060005260206000200160009055905585600101600086815260200190815260200160002060009055600193505050506200115f565b60009150505b92915050565b600081600001805490509050919050565b600082600001828154811062001191576200119062001571565b5b9060005260206000200154905092915050565b828054620011b29062001a2d565b90600052602060002090601f016020900481019282620011d6576000855562001222565b82601f10620011f157805160ff191683800117855562001222565b8280016001018555821562001222579182015b828111156200122157825182559160200191906001019062001204565b5b50905062001231919062001235565b5090565b5b808211156200125057600081600090555060010162001236565b5090565b6000604051905090565b600080fd5b600080fd5b600080fd5b600080fd5b6000601f19601f8301169050919050565b7f4e487b7100000000000000000000000000000000000000000000000000000000600052604160045260246000fd5b620012bd8262001272565b810181811067ffffffffffffffff82111715620012df57620012de62001283565b5b80604052505050565b6000620012f462001254565b9050620013028282620012b2565b919050565b600067ffffffffffffffff82111562001325576200132462001283565b5b620013308262001272565b9050602081019050919050565b60005b838110156200135d57808201518184015260208101905062001340565b838111156200136d576000848401525b50505050565b60006200138a620013848462001307565b620012e8565b905082815260208101848484011115620013a957620013a86200126d565b5b620013b68482856200133d565b509392505050565b600082601f830112620013d657620013d562001268565b5b8151620013e884826020860162001373565b91505092915050565b6000819050919050565b6200140681620013f1565b81146200141257600080fd5b50565b6000815190506200142681620013fb565b92915050565b600080600080600080600080610100898b03121562001450576200144f6200125e565b5b600089015167ffffffffffffffff81111562001471576200147062001263565b5b6200147f8b828c01620013be565b985050602089015167ffffffffffffffff811115620014a357620014a262001263565b5b620014b18b828c01620013be565b9750506040620014c48b828c0162001415565b965050606089015167ffffffffffffffff811115620014e857620014e762001263565b5b620014f68b828c01620013be565b9550506080620015098b828c0162001415565b94505060a089015167ffffffffffffffff8111156200152d576200152c62001263565b5b6200153b8b828c01620013be565b93505060c06200154e8b828c0162001415565b92505060e0620015618b828c0162001415565b9150509295985092959890939650565b7f4e487b7100000000000000000000000000000000000000000000000000000000600052603260045260246000fd5b600082825260208201905092915050565b7f5061757361626c653a2070617573656400000000000000000000000000000000600082015250565b6000620015e9601083620015a0565b9150620015f682620015b1565b602082019050919050565b600060208201905081810360008301526200161c81620015da565b9050919050565b600073ffffffffffffffffffffffffffffffffffffffff82169050919050565b6000620016508262001623565b9050919050565b620016628162001643565b82525050565b60006020820190506200167f600083018462001657565b92915050565b7f5265737472696374656420746f206d656d626572732e00000000000000000000600082015250565b6000620016bd601683620015a0565b9150620016ca8262001685565b602082019050919050565b60006020820190508181036000830152620016f081620016ae565b9050919050565b7f4e487b7100000000000000000000000000000000000000000000000000000000600052601160045260246000fd5b60006200173382620013f1565b91507fffffffffffffffffffffffffffffffffffffffffffffffffffffffffffffffff821415620017695762001768620016f7565b5b600182019050919050565b60006200178182620013f1565b91506200178e83620013f1565b9250827fffffffffffffffffffffffffffffffffffffffffffffffffffffffffffffffff03821115620017c657620017c5620016f7565b5b828201905092915050565b7f746f74616c206d75737420626520313030000000000000000000000000000000600082015250565b600062001809601183620015a0565b91506200181682620017d1565b602082019050919050565b600060208201905081810360008301526200183c81620017fa565b9050919050565b6200184e81620013f1565b82525050565b600081519050919050565b600082825260208201905092915050565b60006200187d8262001854565b6200188981856200185f565b93506200189b8185602086016200133d565b620018a68162001272565b840191505092915050565b6000608082019050620018c8600083018762001657565b620018d7602083018662001657565b620018e6604083018562001843565b8181036060830152620018fa818462001870565b905095945050505050565b60007fffffffff0000000000000000000000000000000000000000000000000000000082169050919050565b6200193c8162001905565b81146200194857600080fd5b50565b6000815190506200195c8162001931565b92915050565b6000602082840312156200197b576200197a6200125e565b5b60006200198b848285016200194b565b91505092915050565b6000620019a182620013f1565b9150620019ae83620013f1565b925082821015620019c457620019c3620016f7565b5b828203905092915050565b7f4e487b7100000000000000000000000000000000000000000000000000000000600052603160045260246000fd5b7f4e487b7100000000000000000000000000000000000000000000000000000000600052602260045260246000fd5b6000600282049050600182168062001a4657607f821691505b6020821081141562001a5d5762001a5c620019fe565b5b50919050565b615e698062001a736000396000f3fe60806040526004361061036b5760003560e01c806386c913b0116101c6578063c180526a116100f7578063d661822c11610095578063df63c48c1161006f578063df63c48c14610c5f578063e6a9e57714610c8a578063e985e9c514610cb3578063f2fde38b14610cf05761036b565b8063d661822c14610bf6578063db5e465b14610c0d578063dc2295d414610c365761036b565b8063ca15c873116100d1578063ca15c87314610b3c578063ca6d56dc14610b79578063d547741f14610ba2578063d5abeb0114610bcb5761036b565b8063c180526a14610ab8578063c87b56dd14610ad4578063c9e37d6d14610b115761036b565b8063a22cb46511610164578063b05863d51161013e578063b05863d5146109ff578063b3974b6114610a28578063b88d4fde14610a51578063bcef948c14610a7a5761036b565b8063a22cb4651461095c578063a230c52414610985578063a7cd52cb146109c25761036b565b806391d14854116101a057806391d14854146108ad57806395d89b41146108ea578063a0712d6814610915578063a217fddf146109315761036b565b806386c913b01461082e5780638da5cb5b146108455780639010d07c146108705761036b565b80633ccfd60b116102a05780636352211e1161023e578063715018a611610218578063715018a6146107ac5780637b77368b146107c35780637d9a7a4c146107ee5780638456cb59146108175761036b565b80636352211e146107075780636c0360eb1461074457806370a082311461076f5761036b565b806345877aa71161027a57806345877aa71461065d57806347d5b43a1461068857806355f804b3146106b35780635c975abb146106dc5761036b565b80633ccfd60b146106065780633f4ba83a1461061d57806342842e0e146106345761036b565b80631938f0a21161030d5780632ae0846d116102e75780632ae0846d1461054c5780632f2ff15d14610577578063301690ee146105a057806336568abe146105dd5761036b565b80631938f0a2146104bd57806323b872dd146104e6578063248a9ca31461050f5761036b565b8063095ea7b311610349578063095ea7b3146104155780630b1ca49a1461043e5780630d39fc811461046757806318160ddd146104925761036b565b806301ffc9a71461037057806306fdde03146103ad578063081812fc146103d8575b600080fd5b34801561037c57600080fd5b506103976004803603810190610392919061447b565b610d19565b6040516103a491906144c3565b60405180910390f35b3480156103b957600080fd5b506103c2610d2b565b6040516103cf9190614577565b60405180910390f35b3480156103e457600080fd5b506103ff60048036038101906103fa91906145cf565b610dbd565b60405161040c919061463d565b60405180910390f35b34801561042157600080fd5b5061043c60048036038101906104379190614684565b610e3c565b005b34801561044a57600080fd5b50610465600480360381019061046091906146c4565b610f80565b005b34801561047357600080fd5b5061047c61100c565b6040516104899190614700565b60405180910390f35b34801561049e57600080fd5b506104a7611012565b6040516104b49190614700565b60405180910390f35b3480156104c957600080fd5b506104e460048036038101906104df91906145cf565b611029565b005b3480156104f257600080fd5b5061050d6004803603810190610508919061471b565b61107b565b005b34801561051b57600080fd5b50610536600480360381019061053191906147a4565b6113a0565b60405161054391906147e0565b60405180910390f35b34801561055857600080fd5b506105616113c0565b60405161056e9190614577565b60405180910390f35b34801561058357600080fd5b5061059e600480360381019061059991906147fb565b61144e565b005b3480156105ac57600080fd5b506105c760048036038101906105c291906146c4565b61146f565b6040516105d491906144c3565b60405180910390f35b3480156105e957600080fd5b5061060460048036038101906105ff91906147fb565b61148c565b005b34801561061257600080fd5b5061061b61150f565b005b34801561062957600080fd5b5061063261171f565b005b34801561064057600080fd5b5061065b6004803603810190610656919061471b565b611771565b005b34801561066957600080fd5b50610672611791565b60405161067f91906144c3565b60405180910390f35b34801561069457600080fd5b5061069d6117a4565b6040516106aa9190614700565b60405180910390f35b3480156106bf57600080fd5b506106da60048036038101906106d591906148a0565b6117b5565b005b3480156106e857600080fd5b506106f1611813565b6040516106fe91906144c3565b60405180910390f35b34801561071357600080fd5b5061072e600480360381019061072991906145cf565b61182a565b60405161073b919061463d565b60405180910390f35b34801561075057600080fd5b5061075961183c565b6040516107669190614577565b60405180910390f35b34801561077b57600080fd5b50610796600480360381019061079191906146c4565b6118ca565b6040516107a39190614700565b60405180910390f35b3480156107b857600080fd5b506107c1611983565b005b3480156107cf57600080fd5b506107d8611a0b565b6040516107e59190614700565b60405180910390f35b3480156107fa57600080fd5b50610815600480360381019061081091906145cf565b611a11565b005b34801561082357600080fd5b5061082c611a63565b005b34801561083a57600080fd5b50610843611ab5565b005b34801561085157600080fd5b5061085a611b07565b604051610867919061463d565b60405180910390f35b34801561087c57600080fd5b50610897600480360381019061089291906148ed565b611b31565b6040516108a4919061463d565b60405180910390f35b3480156108b957600080fd5b506108d460048036038101906108cf91906147fb565b611b60565b6040516108e191906144c3565b60405180910390f35b3480156108f657600080fd5b506108ff611bcb565b60405161090c9190614577565b60405180910390f35b61092f600480360381019061092a91906145cf565b611c5d565b005b34801561093d57600080fd5b50610946611de5565b60405161095391906147e0565b60405180910390f35b34801561096857600080fd5b50610983600480360381019061097e9190614959565b611dec565b005b34801561099157600080fd5b506109ac60048036038101906109a791906146c4565b611f64565b6040516109b991906144c3565b60405180910390f35b3480156109ce57600080fd5b506109e960048036038101906109e491906146c4565b611f7a565b6040516109f69190614700565b60405180910390f35b348015610a0b57600080fd5b50610a266004803603810190610a219190614b9a565b611f92565b005b348015610a3457600080fd5b50610a4f6004803603810190610a4a9190614d0e565b6120ba565b005b348015610a5d57600080fd5b50610a786004803603810190610a739190614e3b565b6121d3565b005b348015610a8657600080fd5b50610aa16004803603810190610a9c91906145cf565b612246565b604051610aaf929190614ebe565b60405180910390f35b610ad26004803603810190610acd91906145cf565b612266565b005b348015610ae057600080fd5b50610afb6004803603810190610af691906145cf565b612540565b604051610b089190614577565b60405180910390f35b348015610b1d57600080fd5b50610b26612690565b604051610b339190614700565b60405180910390f35b348015610b4857600080fd5b50610b636004803603810190610b5e91906147a4565b612696565b604051610b709190614700565b60405180910390f35b348015610b8557600080fd5b50610ba06004803603810190610b9b91906146c4565b6126ba565b005b348015610bae57600080fd5b50610bc96004803603810190610bc491906147fb565b612746565b005b348015610bd757600080fd5b50610be0612767565b604051610bed9190614700565b60405180910390f35b348015610c0257600080fd5b50610c0b61276d565b005b348015610c1957600080fd5b50610c346004803603810190610c2f91906145cf565b6127bf565b005b348015610c4257600080fd5b50610c5d6004803603810190610c589190614f88565b612811565b005b348015610c6b57600080fd5b50610c74612873565b604051610c8191906144c3565b60405180910390f35b348015610c9657600080fd5b50610cb16004803603810190610cac9190614fd1565b612886565b005b348015610cbf57600080fd5b50610cda6004803603810190610cd59190614ffe565b6128eb565b604051610ce791906144c3565b60405180910390f35b348015610cfc57600080fd5b50610d176004803603810190610d1291906146c4565b61297f565b005b6000610d2482612c88565b9050919050565b606060028054610d3a9061506d565b80601f0160208091040260200160405190810160405280929190818152602001828054610d669061506d565b8015610db35780601f10610d8857610100808354040283529160200191610db3565b820191906000526020600020905b815481529060010190602001808311610d9657829003601f168201915b5050505050905090565b6000610dc882612d02565b610dfe576040517fcf4700e400000000000000000000000000000000000000000000000000000000815260040160405180910390fd5b6006600083815260200190815260200160002060000160009054906101000a900473ffffffffffffffffffffffffffffffffffffffff169050919050565b6000610e478261182a565b90508073ffffffffffffffffffffffffffffffffffffffff16610e68612d61565b73ffffffffffffffffffffffffffffffffffffffff1614610ecb57610e9481610e8f612d61565b6128eb565b610eca576040517fcfb3b94200000000000000000000000000000000000000000000000000000000815260040160405180910390fd5b5b826006600084815260200190815260200160002060000160006101000a81548173ffffffffffffffffffffffffffffffffffffffff021916908373ffffffffffffffffffffffffffffffffffffffff160217905550818373ffffffffffffffffffffffffffffffffffffffff168273ffffffffffffffffffffffffffffffffffffffff167f8c5be1e5ebec7d5bd14f71427d1e84f3dd0314c0f7b2291e5b200ac8c7c3b92560405160405180910390a4505050565b610f88612d69565b73ffffffffffffffffffffffffffffffffffffffff16610fa6611b07565b73ffffffffffffffffffffffffffffffffffffffff1614610ffc576040517f08c379a0000000000000000000000000000000000000000000000000000000008152600401610ff3906150eb565b60405180910390fd5b6110096000801b82612746565b50565b600f5481565b600061101c612d71565b6001546000540303905090565b61103233611f64565b611071576040517f08c379a000000000000000000000000000000000000000000000000000000000815260040161106890615157565b60405180910390fd5b8060158190555050565b600061108682612d76565b90508373ffffffffffffffffffffffffffffffffffffffff168173ffffffffffffffffffffffffffffffffffffffff16146110ed576040517fa114810000000000000000000000000000000000000000000000000000000000815260040160405180910390fd5b6000806110f984612e44565b9150915061110f818761110a612d61565b612e6b565b61115b576111248661111f612d61565b6128eb565b61115a576040517f59c896be00000000000000000000000000000000000000000000000000000000815260040160405180910390fd5b5b600073ffffffffffffffffffffffffffffffffffffffff168573ffffffffffffffffffffffffffffffffffffffff1614156111c2576040517fea553b3400000000000000000000000000000000000000000000000000000000815260040160405180910390fd5b6111cf8686866001612eaf565b80156111da57600082555b600560008773ffffffffffffffffffffffffffffffffffffffff1673ffffffffffffffffffffffffffffffffffffffff168152602001908152602001600020600081546001900391905081905550600560008673ffffffffffffffffffffffffffffffffffffffff1673ffffffffffffffffffffffffffffffffffffffff16815260200190815260200160002060008154600101919050819055506112a885611284888887612eb5565b7c020000000000000000000000000000000000000000000000000000000017612edd565b600460008681526020019081526020016000208190555060007c02000000000000000000000000000000000000000000000000000000008416141561133057600060018501905060006004600083815260200190815260200160002054141561132e57600054811461132d578360046000838152602001908152602001600020819055505b5b505b838573ffffffffffffffffffffffffffffffffffffffff168773ffffffffffffffffffffffffffffffffffffffff167fddf252ad1be2c89b69c2b068fc378daa952ba7f163c4a11628f55a4df523b3ef60405160405180910390a46113988686866001612f08565b505050505050565b600060096000838152602001908152602001600020600101549050919050565b601380546113cd9061506d565b80601f01602080910402602001604051908101604052809291908181526020018280546113f99061506d565b80156114465780601f1061141b57610100808354040283529160200191611446565b820191906000526020600020905b81548152906001019060200180831161142957829003601f168201915b505050505081565b611457826113a0565b61146081612f0e565b61146a8383612f22565b505050565b600061148582600b612f5690919063ffffffff16565b9050919050565b611494612d69565b73ffffffffffffffffffffffffffffffffffffffff168173ffffffffffffffffffffffffffffffffffffffff1614611501576040517f08c379a00000000000000000000000000000000000000000000000000000000081526004016114f8906151e9565b60405180910390fd5b61150b8282612f86565b5050565b61151833611f64565b611557576040517f08c379a000000000000000000000000000000000000000000000000000000000815260040161154e90615157565b60405180910390fd5b60004790506000819050600061156b6117a4565b905060005b60018261157d9190615238565b8110156116b75760008061159083612246565b915091506000806115aa8389612fba90919063ffffffff16565b91509150816115ee576040517f08c379a00000000000000000000000000000000000000000000000000000000081526004016115e5906152b8565b60405180910390fd5b60008061160560648461300e90919063ffffffff16565b9150915081611649576040517f08c379a0000000000000000000000000000000000000000000000000000000008152600401611640906152b8565b60405180910390fd5b8573ffffffffffffffffffffffffffffffffffffffff166108fc829081150290604051600060405180830381858888f1935050505015801561168f573d6000803e3d6000fd5b50808961169c9190615238565b985050505050505080806116af906152d8565b915050611570565b5060006116cf6001836116ca9190615238565b612246565b5090508073ffffffffffffffffffffffffffffffffffffffff166108fc849081150290604051600060405180830381858888f19350505050158015611718573d6000803e3d6000fd5b5050505050565b61172833611f64565b611767576040517f08c379a000000000000000000000000000000000000000000000000000000000815260040161175e90615157565b60405180910390fd5b61176f613045565b565b61178c838383604051806020016040528060008152506121d3565b505050565b600860159054906101000a900460ff1681565b60006117b0600b612bed565b905090565b6117be33611f64565b6117fd576040517f08c379a00000000000000000000000000000000000000000000000000000000081526004016117f490615157565b60405180910390fd5b8181600e919061180e9291906142e6565b505050565b6000600860149054906101000a900460ff16905090565b600061183582612d76565b9050919050565b600e80546118499061506d565b80601f01602080910402602001604051908101604052809291908181526020018280546118759061506d565b80156118c25780601f10611897576101008083540402835291602001916118c2565b820191906000526020600020905b8154815290600101906020018083116118a557829003601f168201915b505050505081565b60008073ffffffffffffffffffffffffffffffffffffffff168273ffffffffffffffffffffffffffffffffffffffff161415611932576040517f8f4eb60400000000000000000000000000000000000000000000000000000000815260040160405180910390fd5b67ffffffffffffffff600560008473ffffffffffffffffffffffffffffffffffffffff1673ffffffffffffffffffffffffffffffffffffffff16815260200190815260200160002054169050919050565b61198b612d69565b73ffffffffffffffffffffffffffffffffffffffff166119a9611b07565b73ffffffffffffffffffffffffffffffffffffffff16146119ff576040517f08c379a00000000000000000000000000000000000000000000000000000000081526004016119f6906150eb565b60405180910390fd5b611a0960006130e7565b565b60115481565b611a1a33611f64565b611a59576040517f08c379a0000000000000000000000000000000000000000000000000000000008152600401611a5090615157565b60405180910390fd5b80600f8190555050565b611a6c33611f64565b611aab576040517f08c379a0000000000000000000000000000000000000000000000000000000008152600401611aa290615157565b60405180910390fd5b611ab36131ad565b565b611abe33611f64565b611afd576040517f08c379a0000000000000000000000000000000000000000000000000000000008152600401611af490615157565b60405180910390fd5b611b05613250565b565b6000600860009054906101000a900473ffffffffffffffffffffffffffffffffffffffff16905090565b6000611b5882600a60008681526020019081526020016000206132b390919063ffffffff16565b905092915050565b60006009600084815260200190815260200160002060000160008373ffffffffffffffffffffffffffffffffffffffff1673ffffffffffffffffffffffffffffffffffffffff16815260200190815260200160002060009054906101000a900460ff16905092915050565b606060038054611bda9061506d565b80601f0160208091040260200160405190810160405280929190818152602001828054611c069061506d565b8015611c535780601f10611c2857610100808354040283529160200191611c53565b820191906000526020600020905b815481529060010190602001808311611c3657829003601f168201915b5050505050905090565b3373ffffffffffffffffffffffffffffffffffffffff163273ffffffffffffffffffffffffffffffffffffffff1614611ccb576040517f08c379a0000000000000000000000000000000000000000000000000000000008152600401611cc29061536d565b60405180910390fd5b611cd3611813565b15611d13576040517f08c379a0000000000000000000000000000000000000000000000000000000008152600401611d0a906153d9565b60405180910390fd5b60105481611d1f611012565b611d2991906153f9565b1115611d6a576040517f08c379a0000000000000000000000000000000000000000000000000000000008152600401611d619061549b565b60405180910390fd5b60115481611d77336118ca565b611d8191906153f9565b1115611dc2576040517f08c379a0000000000000000000000000000000000000000000000000000000008152600401611db990615507565b60405180910390fd5b611dcc33826132cd565b611de281600f54611ddd9190615527565b6132eb565b50565b6000801b81565b611df4612d61565b73ffffffffffffffffffffffffffffffffffffffff168273ffffffffffffffffffffffffffffffffffffffff161415611e59576040517fb06307db00000000000000000000000000000000000000000000000000000000815260040160405180910390fd5b8060076000611e66612d61565b73ffffffffffffffffffffffffffffffffffffffff1673ffffffffffffffffffffffffffffffffffffffff16815260200190815260200160002060008473ffffffffffffffffffffffffffffffffffffffff1673ffffffffffffffffffffffffffffffffffffffff16815260200190815260200160002060006101000a81548160ff0219169083151502179055508173ffffffffffffffffffffffffffffffffffffffff16611f13612d61565b73ffffffffffffffffffffffffffffffffffffffff167f17307eab39ab6107e8899845ad3d59bd9653f200f220920489ca2b5937696c3183604051611f5891906144c3565b60405180910390a35050565b6000611f736000801b83611b60565b9050919050565b60146020528060005260406000206000915090505481565b611f9b33611f64565b611fda576040517f08c379a0000000000000000000000000000000000000000000000000000000008152600401611fd190615157565b60405180910390fd5b805182511461201e576040517f08c379a0000000000000000000000000000000000000000000000000000000008152600401612015906155cd565b60405180910390fd5b60005b82518110156120b55781818151811061203d5761203c6155ed565b5b60200260200101516014600085848151811061205c5761205b6155ed565b5b602002602001015173ffffffffffffffffffffffffffffffffffffffff1673ffffffffffffffffffffffffffffffffffffffff1681526020019081526020016000208190555080806120ad906152d8565b915050612021565b505050565b6120c2612d69565b73ffffffffffffffffffffffffffffffffffffffff166120e0611b07565b73ffffffffffffffffffffffffffffffffffffffff1614612136576040517f08c379a000000000000000000000000000000000000000000000000000000000815260040161212d906150eb565b60405180910390fd5b601054612141611012565b10612181576040517f08c379a00000000000000000000000000000000000000000000000000000000081526004016121789061568e565b60405180910390fd5b80518251146121c5576040517f08c379a00000000000000000000000000000000000000000000000000000000081526004016121bc906155cd565b60405180910390fd5b6121cf828261338c565b5050565b6121de84848461107b565b60008373ffffffffffffffffffffffffffffffffffffffff163b1461224057612209848484846134f4565b61223f576040517fd1a57ed600000000000000000000000000000000000000000000000000000000815260040160405180910390fd5b5b50505050565b60008061225d83600b612c0290919063ffffffff16565b91509150915091565b61226e613645565b3373ffffffffffffffffffffffffffffffffffffffff163273ffffffffffffffffffffffffffffffffffffffff16146122dc576040517f08c379a00000000000000000000000000000000000000000000000000000000081526004016122d39061536d565b60405180910390fd5b6000601460003373ffffffffffffffffffffffffffffffffffffffff1673ffffffffffffffffffffffffffffffffffffffff168152602001908152602001600020541161235e576040517f08c379a0000000000000000000000000000000000000000000000000000000008152600401612355906156fa565b60405180910390fd5b6010548161236a611012565b61237491906153f9565b11156123b5576040517f08c379a00000000000000000000000000000000000000000000000000000000081526004016123ac90615766565b60405180910390fd5b601154816123c2336118ca565b6123cc91906153f9565b111561240d576040517f08c379a000000000000000000000000000000000000000000000000000000000815260040161240490615507565b60405180910390fd5b601460003373ffffffffffffffffffffffffffffffffffffffff1673ffffffffffffffffffffffffffffffffffffffff1681526020019081526020016000205481111561248f576040517f08c379a0000000000000000000000000000000000000000000000000000000008152600401612486906157d2565b60405180910390fd5b80601460003373ffffffffffffffffffffffffffffffffffffffff1673ffffffffffffffffffffffffffffffffffffffff168152602001908152602001600020546124da9190615238565b601460003373ffffffffffffffffffffffffffffffffffffffff1673ffffffffffffffffffffffffffffffffffffffff1681526020019081526020016000208190555061252733826132cd565b61253d816015546125389190615527565b6132eb565b50565b606061254b82612d02565b61258a576040517f08c379a00000000000000000000000000000000000000000000000000000000081526004016125819061583e565b60405180910390fd5b601260009054906101000a900460ff16156125fd576000600e80546125ae9061506d565b9050116125ca57604051806020016040528060008152506125f6565b600e6125d583613697565b6040516020016125e692919061592e565b6040516020818303038152906040525b905061268b565b6013805461260a9061506d565b80601f01602080910402602001604051908101604052809291908181526020018280546126369061506d565b80156126835780601f1061265857610100808354040283529160200191612683565b820191906000526020600020905b81548152906001019060200180831161266657829003601f168201915b505050505090505b919050565b60155481565b60006126b3600a60008481526020019081526020016000206137f8565b9050919050565b6126c2612d69565b73ffffffffffffffffffffffffffffffffffffffff166126e0611b07565b73ffffffffffffffffffffffffffffffffffffffff1614612736576040517f08c379a000000000000000000000000000000000000000000000000000000000815260040161272d906150eb565b60405180910390fd5b6127436000801b8261144e565b50565b61274f826113a0565b61275881612f0e565b6127628383612f86565b505050565b60105481565b61277633611f64565b6127b5576040517f08c379a00000000000000000000000000000000000000000000000000000000081526004016127ac90615157565b60405180910390fd5b6127bd61380d565b565b6127c833611f64565b612807576040517f08c379a00000000000000000000000000000000000000000000000000000000081526004016127fe90615157565b60405180910390fd5b8060118190555050565b61281a33611f64565b612859576040517f08c379a000000000000000000000000000000000000000000000000000000000815260040161285090615157565b60405180910390fd5b806013908051906020019061286f92919061436c565b5050565b601260009054906101000a900460ff1681565b61288f33611f64565b6128ce576040517f08c379a00000000000000000000000000000000000000000000000000000000081526004016128c590615157565b60405180910390fd5b80601260006101000a81548160ff02191690831515021790555050565b6000600760008473ffffffffffffffffffffffffffffffffffffffff1673ffffffffffffffffffffffffffffffffffffffff16815260200190815260200160002060008373ffffffffffffffffffffffffffffffffffffffff1673ffffffffffffffffffffffffffffffffffffffff16815260200190815260200160002060009054906101000a900460ff16905092915050565b612987612d69565b73ffffffffffffffffffffffffffffffffffffffff166129a5611b07565b73ffffffffffffffffffffffffffffffffffffffff16146129fb576040517f08c379a00000000000000000000000000000000000000000000000000000000081526004016129f2906150eb565b60405180910390fd5b600073ffffffffffffffffffffffffffffffffffffffff168173ffffffffffffffffffffffffffffffffffffffff161415612a6b576040517f08c379a0000000000000000000000000000000000000000000000000000000008152600401612a62906159c4565b60405180910390fd5b612a74816130e7565b50565b612a818282611b60565b612b545760016009600084815260200190815260200160002060000160008373ffffffffffffffffffffffffffffffffffffffff1673ffffffffffffffffffffffffffffffffffffffff16815260200190815260200160002060006101000a81548160ff021916908315150217905550612af9612d69565b73ffffffffffffffffffffffffffffffffffffffff168173ffffffffffffffffffffffffffffffffffffffff16837f2f8788117e7eff1d82e926ec794901d17c78024a50270940304540a733656f0d60405160405180910390a45b5050565b6000612b80836000018373ffffffffffffffffffffffffffffffffffffffff1660001b613870565b905092915050565b6000612bb0836000018373ffffffffffffffffffffffffffffffffffffffff1660001b6138e0565b905092915050565b6000612be4846000018473ffffffffffffffffffffffffffffffffffffffff1660001b8460001b613919565b90509392505050565b6000612bfb82600001613954565b9050919050565b600080600080612c158660000186613969565b915091508160001c8160001c9350935050509250929050565b6000612c3d83600001836139a9565b905092915050565b6000612c548360000183613870565b905092915050565b6000612c6a82600001613abd565b9050919050565b6000612c808360000183613ace565b905092915050565b60007f5a05180f000000000000000000000000000000000000000000000000000000007bffffffffffffffffffffffffffffffffffffffffffffffffffffffff1916827bffffffffffffffffffffffffffffffffffffffffffffffffffffffff19161480612cfb5750612cfa82613af9565b5b9050919050565b600081612d0d612d71565b11158015612d1c575060005482105b8015612d5a575060007c0100000000000000000000000000000000000000000000000000000000600460008581526020019081526020016000205416145b9050919050565b600033905090565b600033905090565b600090565b60008082905080612d85612d71565b11612e0d57600054811015612e0c5760006004600083815260200190815260200160002054905060007c010000000000000000000000000000000000000000000000000000000082161415612e0a575b6000811415612e00576004600083600190039350838152602001908152602001600020549050612dd5565b8092505050612e3f565b505b5b6040517fdf2d9b4200000000000000000000000000000000000000000000000000000000815260040160405180910390fd5b919050565b60008060006006600085815260200190815260200160002090508092508254915050915091565b600073ffffffffffffffffffffffffffffffffffffffff8316925073ffffffffffffffffffffffffffffffffffffffff821691508382148383141790509392505050565b50505050565b60008060e883901c905060e8612ecc868684613b73565b62ffffff16901b9150509392505050565b600073ffffffffffffffffffffffffffffffffffffffff83169250814260a01b178317905092915050565b50505050565b612f1f81612f1a612d69565b613b7c565b50565b612f2c8282612a77565b612f5181600a6000858152602001908152602001600020612b5890919063ffffffff16565b505050565b6000612f7e836000018373ffffffffffffffffffffffffffffffffffffffff1660001b613c19565b905092915050565b612f908282613c39565b612fb581600a6000858152602001908152602001600020613d1b90919063ffffffff16565b505050565b6000806000841415612fd3576001600091509150613007565b6000838502905083858281612feb57612fea6159e4565b5b0414612ffe576000809250925050613007565b60018192509250505b9250929050565b6000806000831415613026576000809150915061303e565b6001838581613038576130376159e4565b5b04915091505b9250929050565b61304d611813565b61308c576040517f08c379a000000000000000000000000000000000000000000000000000000000815260040161308390615a5f565b60405180910390fd5b6000600860146101000a81548160ff0219169083151502179055507f5db9ee0a495bf2e6ff9c91a7834c1ba4fdd244a5e8aa4e537bd38aeae4b073aa6130d0612d69565b6040516130dd919061463d565b60405180910390a1565b6000600860009054906101000a900473ffffffffffffffffffffffffffffffffffffffff16905081600860006101000a81548173ffffffffffffffffffffffffffffffffffffffff021916908373ffffffffffffffffffffffffffffffffffffffff1602179055508173ffffffffffffffffffffffffffffffffffffffff168173ffffffffffffffffffffffffffffffffffffffff167f8be0079c531659141344cd1fd0a4f28419497f9722a3daafe3b4186f6b6457e060405160405180910390a35050565b6131b5611813565b156131f5576040517f08c379a00000000000000000000000000000000000000000000000000000000081526004016131ec906153d9565b60405180910390fd5b6001600860146101000a81548160ff0219169083151502179055507f62e78cea01bee320cd4e420270b5ea74000d11b0c9f74754ebdbfc544b05a258613239612d69565b604051613246919061463d565b60405180910390a1565b613258613d4b565b6000600860156101000a81548160ff0219169083151502179055507fe219780924e4e4875a149e3f40eab9b97d8b18f26e2518aa49052b440b686ecd61329c612d69565b6040516132a9919061463d565b60405180910390a1565b60006132c28360000183613ace565b60001c905092915050565b6132e7828260405180602001604052806000815250613d9c565b5050565b8034101561332e576040517f08c379a000000000000000000000000000000000000000000000000000000000815260040161332590615acb565b60405180910390fd5b80341115613389573373ffffffffffffffffffffffffffffffffffffffff166108fc823461335c9190615238565b9081150290604051600060405180830381858888f19350505050158015613387573d6000803e3d6000fd5b505b50565b60005b82518110156134545760008282815181106133ad576133ac6155ed565b5b602002602001015160ff1614156133f2576133ec8382815181106133d4576133d36155ed565b5b6020026020010151600b612b8890919063ffffffff16565b50613441565b61343f838281518110613408576134076155ed565b5b6020026020010151838381518110613423576134226155ed565b5b602002602001015160ff16600b612bb89092919063ffffffff16565b505b808061344c906152d8565b91505061338f565b50600080613462600b612bed565b905060005b818110156134aa57600061348582600b612c0290919063ffffffff16565b915050808461349491906153f9565b93505080806134a2906152d8565b915050613467565b50606482146134ee576040517f08c379a00000000000000000000000000000000000000000000000000000000081526004016134e590615b37565b60405180910390fd5b50505050565b60008373ffffffffffffffffffffffffffffffffffffffff1663150b7a0261351a612d61565b8786866040518563ffffffff1660e01b815260040161353c9493929190615bac565b6020604051808303816000875af192505050801561357857506040513d601f19601f820116820180604052508101906135759190615c0d565b60015b6135f2573d80600081146135a8576040519150601f19603f3d011682016040523d82523d6000602084013e6135ad565b606091505b506000815114156135ea576040517fd1a57ed600000000000000000000000000000000000000000000000000000000815260040160405180910390fd5b805181602001fd5b63150b7a0260e01b7bffffffffffffffffffffffffffffffffffffffffffffffffffffffff1916817bffffffffffffffffffffffffffffffffffffffffffffffffffffffff191614915050949350505050565b600860159054906101000a900460ff1615613695576040517f08c379a000000000000000000000000000000000000000000000000000000000815260040161368c906153d9565b60405180910390fd5b565b606060008214156136df576040518060400160405280600181526020017f300000000000000000000000000000000000000000000000000000000000000081525090506137f3565b600082905060005b600082146137115780806136fa906152d8565b915050600a8261370a9190615c3a565b91506136e7565b60008167ffffffffffffffff81111561372d5761372c614999565b5b6040519080825280601f01601f19166020018201604052801561375f5781602001600182028036833780820191505090505b5090505b600085146137ec576001826137789190615238565b9150600a856137879190615c6b565b603061379391906153f9565b60f81b8183815181106137a9576137a86155ed565b5b60200101907effffffffffffffffffffffffffffffffffffffffffffffffffffffffffffff1916908160001a905350600a856137e59190615c3a565b9450613763565b8093505050505b919050565b600061380682600001613abd565b9050919050565b613815613645565b6001600860156101000a81548160ff0219169083151502179055507f45880364ff2f99f391baceb996c031b360a390cb6d1c7913cec3aef30cb023fd613859612d69565b604051613866919061463d565b60405180910390a1565b600061387c8383613e39565b6138d55782600001829080600181540180825580915050600190039060005260206000200160009091909190915055826000018054905083600101600084815260200190815260200160002081905550600190506138da565b600090505b92915050565b6000826002016000838152602001908152602001600020600090556139118284600001612c2e90919063ffffffff16565b905092915050565b6000818460020160008581526020019081526020016000208190555061394b8385600001612c4590919063ffffffff16565b90509392505050565b600061396282600001612c5c565b9050919050565b60008060006139848486600001612c7190919063ffffffff16565b9050808560020160008381526020019081526020016000205492509250509250929050565b60008083600101600084815260200190815260200160002054905060008114613ab15760006001826139db9190615238565b90506000600186600001805490506139f39190615238565b9050818114613a62576000866000018281548110613a1457613a136155ed565b5b9060005260206000200154905080876000018481548110613a3857613a376155ed565b5b90600052602060002001819055508387600101600083815260200190815260200160002081905550505b85600001805480613a7657613a75615c9c565b5b600190038181906000526020600020016000905590558560010160008681526020019081526020016000206000905560019350505050613ab7565b60009150505b92915050565b600081600001805490509050919050565b6000826000018281548110613ae657613ae56155ed565b5b9060005260206000200154905092915050565b60007f7965db0b000000000000000000000000000000000000000000000000000000007bffffffffffffffffffffffffffffffffffffffffffffffffffffffff1916827bffffffffffffffffffffffffffffffffffffffffffffffffffffffff19161480613b6c5750613b6b82613e5c565b5b9050919050565b60009392505050565b613b868282611b60565b613c1557613bab8173ffffffffffffffffffffffffffffffffffffffff166014613ec6565b613bb98360001c6020613ec6565b604051602001613bca929190615d63565b6040516020818303038152906040526040517f08c379a0000000000000000000000000000000000000000000000000000000008152600401613c0c9190614577565b60405180910390fd5b5050565b6000613c31828460000161410290919063ffffffff16565b905092915050565b613c438282611b60565b15613d175760006009600084815260200190815260200160002060000160008373ffffffffffffffffffffffffffffffffffffffff1673ffffffffffffffffffffffffffffffffffffffff16815260200190815260200160002060006101000a81548160ff021916908315150217905550613cbc612d69565b73ffffffffffffffffffffffffffffffffffffffff168173ffffffffffffffffffffffffffffffffffffffff16837ff6391f5c32d9c69d2a47ea670b442974b53935d1edc7fd64eb21e047a839171b60405160405180910390a45b5050565b6000613d43836000018373ffffffffffffffffffffffffffffffffffffffff1660001b6139a9565b905092915050565b600860159054906101000a900460ff16613d9a576040517f08c379a0000000000000000000000000000000000000000000000000000000008152600401613d9190615a5f565b60405180910390fd5b565b613da68383614119565b60008373ffffffffffffffffffffffffffffffffffffffff163b14613e3457600080549050600083820390505b613de660008683806001019450866134f4565b613e1c576040517fd1a57ed600000000000000000000000000000000000000000000000000000000815260040160405180910390fd5b818110613dd3578160005414613e3157600080fd5b50505b505050565b600080836001016000848152602001908152602001600020541415905092915050565b60007f01ffc9a7000000000000000000000000000000000000000000000000000000007bffffffffffffffffffffffffffffffffffffffffffffffffffffffff1916827bffffffffffffffffffffffffffffffffffffffffffffffffffffffff1916149050919050565b606060006002836002613ed99190615527565b613ee391906153f9565b67ffffffffffffffff811115613efc57613efb614999565b5b6040519080825280601f01601f191660200182016040528015613f2e5781602001600182028036833780820191505090505b5090507f300000000000000000000000000000000000000000000000000000000000000081600081518110613f6657613f656155ed565b5b60200101907effffffffffffffffffffffffffffffffffffffffffffffffffffffffffffff1916908160001a9053507f780000000000000000000000000000000000000000000000000000000000000081600181518110613fca57613fc96155ed565b5b60200101907effffffffffffffffffffffffffffffffffffffffffffffffffffffffffffff1916908160001a9053506000600184600261400a9190615527565b61401491906153f9565b90505b60018111156140b4577f3031323334353637383961626364656600000000000000000000000000000000600f861660108110614056576140556155ed565b5b1a60f81b82828151811061406d5761406c6155ed565b5b60200101907effffffffffffffffffffffffffffffffffffffffffffffffffffffffffffff1916908160001a905350600485901c9450806140ad90615d9d565b9050614017565b50600084146140f8576040517f08c379a00000000000000000000000000000000000000000000000000000000081526004016140ef90615e13565b60405180910390fd5b8091505092915050565b60006141118360000183613e39565b905092915050565b600080549050600082141561415a576040517fb562e8dd00000000000000000000000000000000000000000000000000000000815260040160405180910390fd5b6141676000848385612eaf565b600160406001901b178202600560008573ffffffffffffffffffffffffffffffffffffffff1673ffffffffffffffffffffffffffffffffffffffff168152602001908152602001600020600082825401925050819055506141de836141cf6000866000612eb5565b6141d8856142d6565b17612edd565b6004600083815260200190815260200160002081905550600080838301905073ffffffffffffffffffffffffffffffffffffffff85169150828260007fddf252ad1be2c89b69c2b068fc378daa952ba7f163c4a11628f55a4df523b3ef600080a4600183015b81811461427f57808360007fddf252ad1be2c89b69c2b068fc378daa952ba7f163c4a11628f55a4df523b3ef600080a4600181019050614244565b5060008214156142bb576040517f2e07630000000000000000000000000000000000000000000000000000000000815260040160405180910390fd5b8060008190555050506142d16000848385612f08565b505050565b60006001821460e11b9050919050565b8280546142f29061506d565b90600052602060002090601f016020900481019282614314576000855561435b565b82601f1061432d57803560ff191683800117855561435b565b8280016001018555821561435b579182015b8281111561435a57823582559160200191906001019061433f565b5b50905061436891906143f2565b5090565b8280546143789061506d565b90600052602060002090601f01602090048101928261439a57600085556143e1565b82601f106143b357805160ff19168380011785556143e1565b828001600101855582156143e1579182015b828111156143e05782518255916020019190600101906143c5565b5b5090506143ee91906143f2565b5090565b5b8082111561440b5760008160009055506001016143f3565b5090565b6000604051905090565b600080fd5b600080fd5b60007fffffffff0000000000000000000000000000000000000000000000000000000082169050919050565b61445881614423565b811461446357600080fd5b50565b6000813590506144758161444f565b92915050565b60006020828403121561449157614490614419565b5b600061449f84828501614466565b91505092915050565b60008115159050919050565b6144bd816144a8565b82525050565b60006020820190506144d860008301846144b4565b92915050565b600081519050919050565b600082825260208201905092915050565b60005b838110156145185780820151818401526020810190506144fd565b83811115614527576000848401525b50505050565b6000601f19601f8301169050919050565b6000614549826144de565b61455381856144e9565b93506145638185602086016144fa565b61456c8161452d565b840191505092915050565b60006020820190508181036000830152614591818461453e565b905092915050565b6000819050919050565b6145ac81614599565b81146145b757600080fd5b50565b6000813590506145c9816145a3565b92915050565b6000602082840312156145e5576145e4614419565b5b60006145f3848285016145ba565b91505092915050565b600073ffffffffffffffffffffffffffffffffffffffff82169050919050565b6000614627826145fc565b9050919050565b6146378161461c565b82525050565b6000602082019050614652600083018461462e565b92915050565b6146618161461c565b811461466c57600080fd5b50565b60008135905061467e81614658565b92915050565b6000806040838503121561469b5761469a614419565b5b60006146a98582860161466f565b92505060206146ba858286016145ba565b9150509250929050565b6000602082840312156146da576146d9614419565b5b60006146e88482850161466f565b91505092915050565b6146fa81614599565b82525050565b600060208201905061471560008301846146f1565b92915050565b60008060006060848603121561473457614733614419565b5b60006147428682870161466f565b93505060206147538682870161466f565b9250506040614764868287016145ba565b9150509250925092565b6000819050919050565b6147818161476e565b811461478c57600080fd5b50565b60008135905061479e81614778565b92915050565b6000602082840312156147ba576147b9614419565b5b60006147c88482850161478f565b91505092915050565b6147da8161476e565b82525050565b60006020820190506147f560008301846147d1565b92915050565b6000806040838503121561481257614811614419565b5b60006148208582860161478f565b92505060206148318582860161466f565b9150509250929050565b600080fd5b600080fd5b600080fd5b60008083601f8401126148605761485f61483b565b5b8235905067ffffffffffffffff81111561487d5761487c614840565b5b60208301915083600182028301111561489957614898614845565b5b9250929050565b600080602083850312156148b7576148b6614419565b5b600083013567ffffffffffffffff8111156148d5576148d461441e565b5b6148e18582860161484a565b92509250509250929050565b6000806040838503121561490457614903614419565b5b60006149128582860161478f565b9250506020614923858286016145ba565b9150509250929050565b614936816144a8565b811461494157600080fd5b50565b6000813590506149538161492d565b92915050565b600080604083850312156149705761496f614419565b5b600061497e8582860161466f565b925050602061498f85828601614944565b9150509250929050565b7f4e487b7100000000000000000000000000000000000000000000000000000000600052604160045260246000fd5b6149d18261452d565b810181811067ffffffffffffffff821117156149f0576149ef614999565b5b80604052505050565b6000614a0361440f565b9050614a0f82826149c8565b919050565b600067ffffffffffffffff821115614a2f57614a2e614999565b5b602082029050602081019050919050565b6000614a53614a4e84614a14565b6149f9565b90508083825260208201905060208402830185811115614a7657614a75614845565b5b835b81811015614a9f5780614a8b888261466f565b845260208401935050602081019050614a78565b5050509392505050565b600082601f830112614abe57614abd61483b565b5b8135614ace848260208601614a40565b91505092915050565b600067ffffffffffffffff821115614af257614af1614999565b5b602082029050602081019050919050565b6000614b16614b1184614ad7565b6149f9565b90508083825260208201905060208402830185811115614b3957614b38614845565b5b835b81811015614b625780614b4e88826145ba565b845260208401935050602081019050614b3b565b5050509392505050565b600082601f830112614b8157614b8061483b565b5b8135614b91848260208601614b03565b91505092915050565b60008060408385031215614bb157614bb0614419565b5b600083013567ffffffffffffffff811115614bcf57614bce61441e565b5b614bdb85828601614aa9565b925050602083013567ffffffffffffffff811115614bfc57614bfb61441e565b5b614c0885828601614b6c565b9150509250929050565b600067ffffffffffffffff821115614c2d57614c2c614999565b5b602082029050602081019050919050565b600060ff82169050919050565b614c5481614c3e565b8114614c5f57600080fd5b50565b600081359050614c7181614c4b565b92915050565b6000614c8a614c8584614c12565b6149f9565b90508083825260208201905060208402830185811115614cad57614cac614845565b5b835b81811015614cd65780614cc28882614c62565b845260208401935050602081019050614caf565b5050509392505050565b600082601f830112614cf557614cf461483b565b5b8135614d05848260208601614c77565b91505092915050565b60008060408385031215614d2557614d24614419565b5b600083013567ffffffffffffffff811115614d4357614d4261441e565b5b614d4f85828601614aa9565b925050602083013567ffffffffffffffff811115614d7057614d6f61441e565b5b614d7c85828601614ce0565b9150509250929050565b600080fd5b600067ffffffffffffffff821115614da657614da5614999565b5b614daf8261452d565b9050602081019050919050565b82818337600083830152505050565b6000614dde614dd984614d8b565b6149f9565b905082815260208101848484011115614dfa57614df9614d86565b5b614e05848285614dbc565b509392505050565b600082601f830112614e2257614e2161483b565b5b8135614e32848260208601614dcb565b91505092915050565b60008060008060808587031215614e5557614e54614419565b5b6000614e638782880161466f565b9450506020614e748782880161466f565b9350506040614e85878288016145ba565b925050606085013567ffffffffffffffff811115614ea657614ea561441e565b5b614eb287828801614e0d565b91505092959194509250565b6000604082019050614ed3600083018561462e565b614ee060208301846146f1565b9392505050565b600067ffffffffffffffff821115614f0257614f01614999565b5b614f0b8261452d565b9050602081019050919050565b6000614f2b614f2684614ee7565b6149f9565b905082815260208101848484011115614f4757614f46614d86565b5b614f52848285614dbc565b509392505050565b600082601f830112614f6f57614f6e61483b565b5b8135614f7f848260208601614f18565b91505092915050565b600060208284031215614f9e57614f9d614419565b5b600082013567ffffffffffffffff811115614fbc57614fbb61441e565b5b614fc884828501614f5a565b91505092915050565b600060208284031215614fe757614fe6614419565b5b6000614ff584828501614944565b91505092915050565b6000806040838503121561501557615014614419565b5b60006150238582860161466f565b92505060206150348582860161466f565b9150509250929050565b7f4e487b7100000000000000000000000000000000000000000000000000000000600052602260045260246000fd5b6000600282049050600182168061508557607f821691505b602082108114156150995761509861503e565b5b50919050565b7f4f776e61626c653a2063616c6c6572206973206e6f7420746865206f776e6572600082015250565b60006150d56020836144e9565b91506150e08261509f565b602082019050919050565b60006020820190508181036000830152615104816150c8565b9050919050565b7f5265737472696374656420746f206d656d626572732e00000000000000000000600082015250565b60006151416016836144e9565b915061514c8261510b565b602082019050919050565b6000602082019050818103600083015261517081615134565b9050919050565b7f416363657373436f6e74726f6c3a2063616e206f6e6c792072656e6f756e636560008201527f20726f6c657320666f722073656c660000000000000000000000000000000000602082015250565b60006151d3602f836144e9565b91506151de82615177565b604082019050919050565b60006020820190508181036000830152615202816151c6565b9050919050565b7f4e487b7100000000000000000000000000000000000000000000000000000000600052601160045260246000fd5b600061524382614599565b915061524e83614599565b92508282101561526157615260615209565b5b828203905092915050565b7f6d756c206661696c2c20636865636b20736172696e6752617465000000000000600082015250565b60006152a2601a836144e9565b91506152ad8261526c565b602082019050919050565b600060208201905081810360008301526152d181615295565b9050919050565b60006152e382614599565b91507fffffffffffffffffffffffffffffffffffffffffffffffffffffffffffffffff82141561531657615315615209565b5b600182019050919050565b7f5468652063616c6c657220697320616e6f7468657220636f6e74726163740000600082015250565b6000615357601e836144e9565b915061536282615321565b602082019050919050565b600060208201905081810360008301526153868161534a565b9050919050565b7f5061757361626c653a2070617573656400000000000000000000000000000000600082015250565b60006153c36010836144e9565b91506153ce8261538d565b602082019050919050565b600060208201905081810360008301526153f2816153b6565b9050919050565b600061540482614599565b915061540f83614599565b9250827fffffffffffffffffffffffffffffffffffffffffffffffffffffffffffffffff0382111561544457615443615209565b5b828201905092915050565b7f507572636861736520776f756c6420657863656564206d617820737570706c79600082015250565b60006154856020836144e9565b91506154908261544f565b602082019050919050565b600060208201905081810360008301526154b481615478565b9050919050565b7f63616e206e6f74206d696e742074686973206d616e7900000000000000000000600082015250565b60006154f16016836144e9565b91506154fc826154bb565b602082019050919050565b60006020820190508181036000830152615520816154e4565b9050919050565b600061553282614599565b915061553d83614599565b9250817fffffffffffffffffffffffffffffffffffffffffffffffffffffffffffffffff048311821515161561557657615575615209565b5b828202905092915050565b7f616464726573736573206e6f74206d61746368206e756d536c6f7473206c656e600082015250565b60006155b76020836144e9565b91506155c282615581565b602082019050919050565b600060208201905081810360008301526155e6816155aa565b9050919050565b7f4e487b7100000000000000000000000000000000000000000000000000000000600052603260045260246000fd5b7f53686172696e672063616e6e6f74206265207365742061667465722073616c6560008201527f2068617320656e64656400000000000000000000000000000000000000000000602082015250565b6000615678602a836144e9565b91506156838261561c565b604082019050919050565b600060208201905081810360008301526156a78161566b565b9050919050565b7f6e6f7420656c696769626c6520666f7220616c6c6f776c697374206d696e7400600082015250565b60006156e4601f836144e9565b91506156ef826156ae565b602082019050919050565b60006020820190508181036000830152615713816156d7565b9050919050565b7f72656163686564206d617820737570706c790000000000000000000000000000600082015250565b60006157506012836144e9565b915061575b8261571a565b602082019050919050565b6000602082019050818103600083015261577f81615743565b9050919050565b7f63616e206e6f7420616c6c6f776c697374206d696e742074686973206d616e79600082015250565b60006157bc6020836144e9565b91506157c782615786565b602082019050919050565b600060208201905081810360008301526157eb816157af565b9050919050565b7f55524920717565727920666f72206e6f6e6578697374656e7420746f6b656e00600082015250565b6000615828601f836144e9565b9150615833826157f2565b602082019050919050565b600060208201905081810360008301526158578161581b565b9050919050565b600081905092915050565b60008190508160005260206000209050919050565b6000815461588b8161506d565b615895818661585e565b945060018216600081146158b057600181146158c1576158f4565b60ff198316865281860193506158f4565b6158ca85615869565b60005b838110156158ec578154818901526001820191506020810190506158cd565b838801955050505b50505092915050565b6000615908826144de565b615912818561585e565b93506159228185602086016144fa565b80840191505092915050565b600061593a828561587e565b915061594682846158fd565b91508190509392505050565b7f4f776e61626c653a206e6577206f776e657220697320746865207a65726f206160008201527f6464726573730000000000000000000000000000000000000000000000000000602082015250565b60006159ae6026836144e9565b91506159b982615952565b604082019050919050565b600060208201905081810360008301526159dd816159a1565b9050919050565b7f4e487b7100000000000000000000000000000000000000000000000000000000600052601260045260246000fd5b7f5061757361626c653a206e6f7420706175736564000000000000000000000000600082015250565b6000615a496014836144e9565b9150615a5482615a13565b602082019050919050565b60006020820190508181036000830152615a7881615a3c565b9050919050565b7f4e65656420746f2073656e64206d6f7265204554482e00000000000000000000600082015250565b6000615ab56016836144e9565b9150615ac082615a7f565b602082019050919050565b60006020820190508181036000830152615ae481615aa8565b9050919050565b7f746f74616c206d75737420626520313030000000000000000000000000000000600082015250565b6000615b216011836144e9565b9150615b2c82615aeb565b602082019050919050565b60006020820190508181036000830152615b5081615b14565b9050919050565b600081519050919050565b600082825260208201905092915050565b6000615b7e82615b57565b615b888185615b62565b9350615b988185602086016144fa565b615ba18161452d565b840191505092915050565b6000608082019050615bc1600083018761462e565b615bce602083018661462e565b615bdb60408301856146f1565b8181036060830152615bed8184615b73565b905095945050505050565b600081519050615c078161444f565b92915050565b600060208284031215615c2357615c22614419565b5b6000615c3184828501615bf8565b91505092915050565b6000615c4582614599565b9150615c5083614599565b925082615c6057615c5f6159e4565b5b828204905092915050565b6000615c7682614599565b9150615c8183614599565b925082615c9157615c906159e4565b5b828206905092915050565b7f4e487b7100000000000000000000000000000000000000000000000000000000600052603160045260246000fd5b7f416363657373436f6e74726f6c3a206163636f756e7420000000000000000000600082015250565b6000615d0160178361585e565b9150615d0c82615ccb565b601782019050919050565b7f206973206d697373696e6720726f6c6520000000000000000000000000000000600082015250565b6000615d4d60118361585e565b9150615d5882615d17565b601182019050919050565b6000615d6e82615cf4565b9150615d7a82856158fd565b9150615d8582615d40565b9150615d9182846158fd565b91508190509392505050565b6000615da882614599565b91506000821415615dbc57615dbb615209565b5b600182039050919050565b7f537472696e67733a20686578206c656e67746820696e73756666696369656e74600082015250565b6000615dfd6020836144e9565b9150615e0882615dc7565b602082019050919050565b60006020820190508181036000830152615e2c81615df0565b905091905056fea264697066735822122017d440227c99cc3d65e021b56a887c8b44022ee921a5a9eca35c9fd80923a6dd64736f6c634300080c0033",
  "linkReferences": {},
  "deployedLinkReferences": {}
}